{
  "contractName": "Rewards",
  "abi": [
    {
      "constant": true,
      "inputs": [],
      "name": "name",
      "outputs": [
        {
          "name": "",
          "type": "string"
        }
      ],
      "payable": false,
      "stateMutability": "view",
      "type": "function"
    },
    {
      "constant": false,
      "inputs": [
        {
          "name": "spender",
          "type": "address"
        },
        {
          "name": "amount",
          "type": "uint256"
        }
      ],
      "name": "approve",
      "outputs": [
        {
          "name": "",
          "type": "bool"
        }
      ],
      "payable": false,
      "stateMutability": "nonpayable",
      "type": "function"
    },
    {
      "constant": true,
      "inputs": [
        {
          "name": "",
          "type": "address"
        }
      ],
      "name": "participantMask",
      "outputs": [
        {
          "name": "",
          "type": "uint256"
        }
      ],
      "payable": false,
      "stateMutability": "view",
      "type": "function"
    },
    {
      "constant": true,
      "inputs": [],
      "name": "totalSupply",
      "outputs": [
        {
          "name": "",
          "type": "uint256"
        }
      ],
      "payable": false,
      "stateMutability": "view",
      "type": "function"
    },
    {
      "constant": true,
      "inputs": [],
      "name": "tokensPerBlock",
      "outputs": [
        {
          "name": "",
          "type": "uint256"
        }
      ],
      "payable": false,
      "stateMutability": "view",
      "type": "function"
    },
    {
      "constant": false,
      "inputs": [
        {
          "name": "sender",
          "type": "address"
        },
        {
          "name": "recipient",
          "type": "address"
        },
        {
          "name": "amount",
          "type": "uint256"
        }
      ],
      "name": "transferFrom",
      "outputs": [
        {
          "name": "",
          "type": "bool"
        }
      ],
      "payable": false,
      "stateMutability": "nonpayable",
      "type": "function"
    },
    {
      "constant": true,
      "inputs": [],
      "name": "blockFreezeInterval",
      "outputs": [
        {
          "name": "",
          "type": "uint256"
        }
      ],
      "payable": false,
      "stateMutability": "view",
      "type": "function"
    },
    {
      "constant": true,
      "inputs": [],
      "name": "decimals",
      "outputs": [
        {
          "name": "",
          "type": "uint8"
        }
      ],
      "payable": false,
      "stateMutability": "view",
      "type": "function"
    },
    {
      "constant": false,
      "inputs": [
        {
          "name": "spender",
          "type": "address"
        },
        {
          "name": "addedValue",
          "type": "uint256"
        }
      ],
      "name": "increaseAllowance",
      "outputs": [
        {
          "name": "",
          "type": "bool"
        }
      ],
      "payable": false,
      "stateMutability": "nonpayable",
      "type": "function"
    },
    {
      "constant": false,
      "inputs": [
        {
          "name": "account",
          "type": "address"
        },
        {
          "name": "amount",
          "type": "uint256"
        }
      ],
      "name": "mint",
      "outputs": [
        {
          "name": "",
          "type": "bool"
        }
      ],
      "payable": false,
      "stateMutability": "nonpayable",
      "type": "function"
    },
    {
      "constant": true,
      "inputs": [
        {
          "name": "account",
          "type": "address"
        }
      ],
      "name": "balanceOf",
      "outputs": [
        {
          "name": "",
          "type": "uint256"
        }
      ],
      "payable": false,
      "stateMutability": "view",
      "type": "function"
    },
    {
      "constant": true,
      "inputs": [],
      "name": "tokencontractAddress",
      "outputs": [
        {
          "name": "",
          "type": "address"
        }
      ],
      "payable": false,
      "stateMutability": "view",
      "type": "function"
    },
    {
      "constant": true,
      "inputs": [],
      "name": "symbol",
      "outputs": [
        {
          "name": "",
          "type": "string"
        }
      ],
      "payable": false,
      "stateMutability": "view",
      "type": "function"
    },
    {
      "constant": false,
      "inputs": [
        {
          "name": "account",
          "type": "address"
        }
      ],
      "name": "addMinter",
      "outputs": [],
      "payable": false,
      "stateMutability": "nonpayable",
      "type": "function"
    },
    {
      "constant": false,
      "inputs": [],
      "name": "renounceMinter",
      "outputs": [],
      "payable": false,
      "stateMutability": "nonpayable",
      "type": "function"
    },
    {
      "constant": true,
      "inputs": [],
      "name": "totalParticipants",
      "outputs": [
        {
          "name": "",
          "type": "uint256"
        }
      ],
      "payable": false,
      "stateMutability": "view",
      "type": "function"
    },
    {
      "constant": false,
      "inputs": [
        {
          "name": "spender",
          "type": "address"
        },
        {
          "name": "subtractedValue",
          "type": "uint256"
        }
      ],
      "name": "decreaseAllowance",
      "outputs": [
        {
          "name": "",
          "type": "bool"
        }
      ],
      "payable": false,
      "stateMutability": "nonpayable",
      "type": "function"
    },
    {
      "constant": false,
      "inputs": [
        {
          "name": "recipient",
          "type": "address"
        },
        {
          "name": "amount",
          "type": "uint256"
        }
      ],
      "name": "transfer",
      "outputs": [
        {
          "name": "",
          "type": "bool"
        }
      ],
      "payable": false,
      "stateMutability": "nonpayable",
      "type": "function"
    },
    {
      "constant": true,
      "inputs": [
        {
          "name": "account",
          "type": "address"
        }
      ],
      "name": "isMinter",
      "outputs": [
        {
          "name": "",
          "type": "bool"
        }
      ],
      "payable": false,
      "stateMutability": "view",
      "type": "function"
    },
    {
      "constant": true,
      "inputs": [],
      "name": "roundMask",
      "outputs": [
        {
          "name": "",
          "type": "uint256"
        }
      ],
      "payable": false,
      "stateMutability": "view",
      "type": "function"
    },
    {
      "constant": true,
      "inputs": [
        {
          "name": "owner",
          "type": "address"
        },
        {
          "name": "spender",
          "type": "address"
        }
      ],
      "name": "allowance",
      "outputs": [
        {
          "name": "",
          "type": "uint256"
        }
      ],
      "payable": false,
      "stateMutability": "view",
      "type": "function"
    },
    {
      "constant": true,
      "inputs": [],
      "name": "lastMintedBlockNumber",
      "outputs": [
        {
          "name": "",
          "type": "uint256"
        }
      ],
      "payable": false,
      "stateMutability": "view",
      "type": "function"
    },
    {
      "inputs": [
        {
          "name": "_tokensPerBlock",
          "type": "uint256"
        },
        {
          "name": "_blockFreezeInterval",
          "type": "uint256"
        }
      ],
      "payable": false,
      "stateMutability": "nonpayable",
      "type": "constructor"
    },
    {
      "anonymous": false,
      "inputs": [
        {
          "indexed": true,
          "name": "account",
          "type": "address"
        }
      ],
      "name": "MinterAdded",
      "type": "event"
    },
    {
      "anonymous": false,
      "inputs": [
        {
          "indexed": true,
          "name": "account",
          "type": "address"
        }
      ],
      "name": "MinterRemoved",
      "type": "event"
    },
    {
      "anonymous": false,
      "inputs": [
        {
          "indexed": true,
          "name": "from",
          "type": "address"
        },
        {
          "indexed": true,
          "name": "to",
          "type": "address"
        },
        {
          "indexed": false,
          "name": "value",
          "type": "uint256"
        }
      ],
      "name": "Transfer",
      "type": "event"
    },
    {
      "anonymous": false,
      "inputs": [
        {
          "indexed": true,
          "name": "owner",
          "type": "address"
        },
        {
          "indexed": true,
          "name": "spender",
          "type": "address"
        },
        {
          "indexed": false,
          "name": "value",
          "type": "uint256"
        }
      ],
      "name": "Approval",
      "type": "event"
    },
    {
      "constant": false,
      "inputs": [
        {
          "name": "_minter",
          "type": "address"
        }
      ],
      "name": "addMinters",
      "outputs": [
        {
          "name": "",
          "type": "bool"
        }
      ],
      "payable": false,
      "stateMutability": "nonpayable",
      "type": "function"
    },
    {
      "constant": false,
      "inputs": [
        {
          "name": "_minter",
          "type": "address"
        }
      ],
      "name": "removeMinters",
      "outputs": [
        {
          "name": "",
          "type": "bool"
        }
      ],
      "payable": false,
      "stateMutability": "nonpayable",
      "type": "function"
    },
    {
      "constant": false,
      "inputs": [],
      "name": "trigger",
      "outputs": [
        {
          "name": "",
          "type": "bool"
        }
      ],
      "payable": false,
      "stateMutability": "nonpayable",
      "type": "function"
    },
    {
      "constant": false,
      "inputs": [],
      "name": "withdraw",
      "outputs": [
        {
          "name": "",
          "type": "bool"
        }
      ],
      "payable": false,
      "stateMutability": "nonpayable",
      "type": "function"
    },
    {
      "constant": true,
      "inputs": [],
      "name": "readyToMint",
      "outputs": [
        {
          "name": "",
          "type": "bool"
        }
      ],
      "payable": false,
      "stateMutability": "view",
      "type": "function"
    }
  ],
  "bytecode": "0x6080604052600060095530600c60006101000a81548173ffffffffffffffffffffffffffffffffffffffff021916908373ffffffffffffffffffffffffffffffffffffffff1602179055503480156200005757600080fd5b5060405160408062002966833981018060405260408110156200007957600080fd5b8101908080519060200190929190805190602001909291905050506040805190810160405280600581526020017f506561726c0000000000000000000000000000000000000000000000000000008152506040805190810160405280600381526020017f50524c00000000000000000000000000000000000000000000000000000000008152506012620001346200011f620001a1640100000000026401000000009004565b620001a9640100000000026401000000009004565b82600490805190602001906200014c92919062000426565b5081600590805190602001906200016592919062000426565b5080600660006101000a81548160ff021916908360ff1602179055505050504360088190555081600a8190555080600b819055505050620004d5565b600033905090565b620001cd816003620002136401000000000262002041179091906401000000009004565b8073ffffffffffffffffffffffffffffffffffffffff167f6ae172837ea30b801fbfcdd4108aa1d5bf8ff775444fd70256b44e6bf3dfc3f660405160405180910390a250565b6200022e828262000302640100000000026401000000009004565b151515620002a4576040517f08c379a000000000000000000000000000000000000000000000000000000000815260040180806020018281038252601f8152602001807f526f6c65733a206163636f756e7420616c72656164792068617320726f6c650081525060200191505060405180910390fd5b60018260000160008373ffffffffffffffffffffffffffffffffffffffff1673ffffffffffffffffffffffffffffffffffffffff16815260200190815260200160002060006101000a81548160ff0219169083151502179055505050565b60008073ffffffffffffffffffffffffffffffffffffffff168273ffffffffffffffffffffffffffffffffffffffff1614151515620003cf576040517f08c379a00000000000000000000000000000000000000000000000000000000081526004018080602001828103825260228152602001807f526f6c65733a206163636f756e7420697320746865207a65726f20616464726581526020017f737300000000000000000000000000000000000000000000000000000000000081525060400191505060405180910390fd5b8260000160008373ffffffffffffffffffffffffffffffffffffffff1673ffffffffffffffffffffffffffffffffffffffff16815260200190815260200160002060009054906101000a900460ff16905092915050565b828054600181600116156101000203166002900490600052602060002090601f016020900481019282601f106200046957805160ff19168380011785556200049a565b828001600101855582156200049a579182015b82811115620004995782518255916020019190600101906200047c565b5b509050620004a99190620004ad565b5090565b620004d291905b80821115620004ce576000816000905550600101620004b4565b5090565b90565b61248180620004e56000396000f3fe60806040526004361061015f576000357c0100000000000000000000000000000000000000000000000000000000900463ffffffff16806306fdde0314610164578063095ea7b3146101f457806311a570fe1461026757806318160ddd146102cc57806319df0bc2146102f75780631a1cb01f1461036057806323b872dd1461038b57806327f2c4511461041e578063313ce5671461044957806331c89bb61461047a57806339509351146104e35780633ccfd60b1461055657806340c10f191461058557806370a08231146105f85780637fec8d381461065d57806388dcc4361461068c57806395d89b41146106e3578063983b2d561461077357806398650275146107c4578063a26dbf26146107db578063a457c2d714610806578063a9059cbb14610879578063aa271e1a146108ec578063d6656b7414610955578063dd62ed3e14610980578063ddf9ce2414610a05578063f62988d914610a34575b600080fd5b34801561017057600080fd5b50610179610a5f565b6040518080602001828103825283818151815260200191508051906020019080838360005b838110156101b957808201518184015260208101905061019e565b50505050905090810190601f1680156101e65780820380516001836020036101000a031916815260200191505b509250505060405180910390f35b34801561020057600080fd5b5061024d6004803603604081101561021757600080fd5b81019080803573ffffffffffffffffffffffffffffffffffffffff16906020019092919080359060200190929190505050610b01565b604051808215151515815260200191505060405180910390f35b34801561027357600080fd5b506102b66004803603602081101561028a57600080fd5b81019080803573ffffffffffffffffffffffffffffffffffffffff169060200190929190505050610b1f565b6040518082815260200191505060405180910390f35b3480156102d857600080fd5b506102e1610b37565b6040518082815260200191505060405180910390f35b34801561030357600080fd5b506103466004803603602081101561031a57600080fd5b81019080803573ffffffffffffffffffffffffffffffffffffffff169060200190929190505050610b41565b604051808215151515815260200191505060405180910390f35b34801561036c57600080fd5b50610375610b7b565b6040518082815260200191505060405180910390f35b34801561039757600080fd5b50610404600480360360608110156103ae57600080fd5b81019080803573ffffffffffffffffffffffffffffffffffffffff169060200190929190803573ffffffffffffffffffffffffffffffffffffffff16906020019092919080359060200190929190505050610b81565b604051808215151515815260200191505060405180910390f35b34801561042a57600080fd5b50610433610c9e565b6040518082815260200191505060405180910390f35b34801561045557600080fd5b5061045e610ca4565b604051808260ff1660ff16815260200191505060405180910390f35b34801561048657600080fd5b506104c96004803603602081101561049d57600080fd5b81019080803573ffffffffffffffffffffffffffffffffffffffff169060200190929190505050610cbb565b604051808215151515815260200191505060405180910390f35b3480156104ef57600080fd5b5061053c6004803603604081101561050657600080fd5b81019080803573ffffffffffffffffffffffffffffffffffffffff16906020019092919080359060200190929190505050610ceb565b604051808215151515815260200191505060405180910390f35b34801561056257600080fd5b5061056b610d9e565b604051808215151515815260200191505060405180910390f35b34801561059157600080fd5b506105de600480360360408110156105a857600080fd5b81019080803573ffffffffffffffffffffffffffffffffffffffff16906020019092919080359060200190929190505050610ed4565b604051808215151515815260200191505060405180910390f35b34801561060457600080fd5b506106476004803603602081101561061b57600080fd5b81019080803573ffffffffffffffffffffffffffffffffffffffff169060200190929190505050610f94565b6040518082815260200191505060405180910390f35b34801561066957600080fd5b50610672610fdc565b604051808215151515815260200191505060405180910390f35b34801561069857600080fd5b506106a1611027565b604051808273ffffffffffffffffffffffffffffffffffffffff1673ffffffffffffffffffffffffffffffffffffffff16815260200191505060405180910390f35b3480156106ef57600080fd5b506106f861104d565b6040518080602001828103825283818151815260200191508051906020019080838360005b8381101561073857808201518184015260208101905061071d565b50505050905090810190601f1680156107655780820380516001836020036101000a031916815260200191505b509250505060405180910390f35b34801561077f57600080fd5b506107c26004803603602081101561079657600080fd5b81019080803573ffffffffffffffffffffffffffffffffffffffff1690602001909291905050506110ef565b005b3480156107d057600080fd5b506107d96111a5565b005b3480156107e757600080fd5b506107f06111b7565b6040518082815260200191505060405180910390f35b34801561081257600080fd5b5061085f6004803603604081101561082957600080fd5b81019080803573ffffffffffffffffffffffffffffffffffffffff169060200190929190803590602001909291905050506111bd565b604051808215151515815260200191505060405180910390f35b34801561088557600080fd5b506108d26004803603604081101561089c57600080fd5b81019080803573ffffffffffffffffffffffffffffffffffffffff169060200190929190803590602001909291905050506112ce565b604051808215151515815260200191505060405180910390f35b3480156108f857600080fd5b5061093b6004803603602081101561090f57600080fd5b81019080803573ffffffffffffffffffffffffffffffffffffffff1690602001909291905050506112ec565b604051808215151515815260200191505060405180910390f35b34801561096157600080fd5b5061096a611309565b6040518082815260200191505060405180910390f35b34801561098c57600080fd5b506109ef600480360360408110156109a357600080fd5b81019080803573ffffffffffffffffffffffffffffffffffffffff169060200190929190803573ffffffffffffffffffffffffffffffffffffffff16906020019092919050505061130f565b6040518082815260200191505060405180910390f35b348015610a1157600080fd5b50610a1a611396565b604051808215151515815260200191505060405180910390f35b348015610a4057600080fd5b50610a496113c4565b6040518082815260200191505060405180910390f35b606060048054600181600116156101000203166002900480601f016020809104026020016040519081016040528092919081815260200182805460018160011615610100020316600290048015610af75780601f10610acc57610100808354040283529160200191610af7565b820191906000526020600020905b815481529060010190602001808311610ada57829003601f168201915b5050505050905090565b6000610b15610b0e6113ca565b84846113d2565b6001905092915050565b600d6020528060005260406000206000915090505481565b6000600254905090565b6000610b4c82611653565b610b6260016009546116ad90919063ffffffff16565b600981905550610b7182611737565b5060019050919050565b600a5481565b6000610b8e84848461178d565b610c9384610b9a6113ca565b610c8e85606060405190810160405280602881526020017f45524332303a207472616e7366657220616d6f756e742065786365656473206181526020017f6c6c6f77616e6365000000000000000000000000000000000000000000000000815250600160008b73ffffffffffffffffffffffffffffffffffffffff1673ffffffffffffffffffffffffffffffffffffffff1681526020019081526020016000206000610c446113ca565b73ffffffffffffffffffffffffffffffffffffffff1673ffffffffffffffffffffffffffffffffffffffff16815260200190815260200160002054611b119092919063ffffffff16565b6113d2565b600190509392505050565b600b5481565b6000600660009054906101000a900460ff16905090565b6000610cd36001600954611bd390919063ffffffff16565b600981905550610ce282611c1d565b60019050919050565b6000610d94610cf86113ca565b84610d8f8560016000610d096113ca565b73ffffffffffffffffffffffffffffffffffffffff1673ffffffffffffffffffffffffffffffffffffffff16815260200190815260200160002060008973ffffffffffffffffffffffffffffffffffffffff1673ffffffffffffffffffffffffffffffffffffffff168152602001908152602001600020546116ad90919063ffffffff16565b6113d2565b6001905092915050565b6000610da9336112ec565b1515610db457600080fd5b6000610dbe611c77565b9050600081111515610dcf57600080fd5b600c60009054906101000a900473ffffffffffffffffffffffffffffffffffffffff1673ffffffffffffffffffffffffffffffffffffffff1663a9059cbb32836040518363ffffffff167c0100000000000000000000000000000000000000000000000000000000028152600401808373ffffffffffffffffffffffffffffffffffffffff1673ffffffffffffffffffffffffffffffffffffffff16815260200182815260200192505050602060405180830381600087803b158015610e9457600080fd5b505af1158015610ea8573d6000803e3d6000fd5b505050506040513d6020811015610ebe57600080fd5b8101908080519060200190929190505050505090565b6000610ee6610ee16113ca565b6112ec565b1515610f80576040517f08c379a00000000000000000000000000000000000000000000000000000000081526004018080602001828103825260308152602001807f4d696e746572526f6c653a2063616c6c657220646f6573206e6f74206861766581526020017f20746865204d696e74657220726f6c650000000000000000000000000000000081525060400191505060405180910390fd5b610f8a8383611ce7565b6001905092915050565b60008060008373ffffffffffffffffffffffffffffffffffffffff1673ffffffffffffffffffffffffffffffffffffffff168152602001908152602001600020549050919050565b6000610fe7336112ec565b1515610ff257600080fd5b6000610ffc611396565b9050600015158115151415611015576000915050611024565b61101d611ea4565b5060019150505b90565b600c60009054906101000a900473ffffffffffffffffffffffffffffffffffffffff1681565b606060058054600181600116156101000203166002900480601f0160208091040260200160405190810160405280929190818152602001828054600181600116156101000203166002900480156110e55780601f106110ba576101008083540402835291602001916110e5565b820191906000526020600020905b8154815290600101906020018083116110c857829003601f168201915b5050505050905090565b6110ff6110fa6113ca565b6112ec565b1515611199576040517f08c379a00000000000000000000000000000000000000000000000000000000081526004018080602001828103825260308152602001807f4d696e746572526f6c653a2063616c6c657220646f6573206e6f74206861766581526020017f20746865204d696e74657220726f6c650000000000000000000000000000000081525060400191505060405180910390fd5b6111a281611653565b50565b6111b56111b06113ca565b611c1d565b565b60095481565b60006112c46111ca6113ca565b846112bf85606060405190810160405280602581526020017f45524332303a2064656372656173656420616c6c6f77616e63652062656c6f7781526020017f207a65726f000000000000000000000000000000000000000000000000000000815250600160006112386113ca565b73ffffffffffffffffffffffffffffffffffffffff1673ffffffffffffffffffffffffffffffffffffffff16815260200190815260200160002060008a73ffffffffffffffffffffffffffffffffffffffff1673ffffffffffffffffffffffffffffffffffffffff16815260200190815260200160002054611b119092919063ffffffff16565b6113d2565b6001905092915050565b60006112e26112db6113ca565b848461178d565b6001905092915050565b6000611302826003611f1e90919063ffffffff16565b9050919050565b60075481565b6000600160008473ffffffffffffffffffffffffffffffffffffffff1673ffffffffffffffffffffffffffffffffffffffff16815260200190815260200160002060008373ffffffffffffffffffffffffffffffffffffffff1673ffffffffffffffffffffffffffffffffffffffff16815260200190815260200160002054905092915050565b60008043905060006008549050600b5481018211156113ba576001925050506113c1565b6000925050505b90565b60085481565b600033905090565b600073ffffffffffffffffffffffffffffffffffffffff168373ffffffffffffffffffffffffffffffffffffffff161415151561149d576040517f08c379a00000000000000000000000000000000000000000000000000000000081526004018080602001828103825260248152602001807f45524332303a20617070726f76652066726f6d20746865207a65726f2061646481526020017f726573730000000000000000000000000000000000000000000000000000000081525060400191505060405180910390fd5b600073ffffffffffffffffffffffffffffffffffffffff168273ffffffffffffffffffffffffffffffffffffffff1614151515611568576040517f08c379a00000000000000000000000000000000000000000000000000000000081526004018080602001828103825260228152602001807f45524332303a20617070726f766520746f20746865207a65726f20616464726581526020017f737300000000000000000000000000000000000000000000000000000000000081525060400191505060405180910390fd5b80600160008573ffffffffffffffffffffffffffffffffffffffff1673ffffffffffffffffffffffffffffffffffffffff16815260200190815260200160002060008473ffffffffffffffffffffffffffffffffffffffff1673ffffffffffffffffffffffffffffffffffffffff168152602001908152602001600020819055508173ffffffffffffffffffffffffffffffffffffffff168373ffffffffffffffffffffffffffffffffffffffff167f8c5be1e5ebec7d5bd14f71427d1e84f3dd0314c0f7b2291e5b200ac8c7c3b925836040518082815260200191505060405180910390a3505050565b61166781600361204190919063ffffffff16565b8073ffffffffffffffffffffffffffffffffffffffff167f6ae172837ea30b801fbfcdd4108aa1d5bf8ff775444fd70256b44e6bf3dfc3f660405160405180910390a250565b600080828401905083811015151561172d576040517f08c379a000000000000000000000000000000000000000000000000000000000815260040180806020018281038252601b8152602001807f536166654d6174683a206164646974696f6e206f766572666c6f77000000000081525060200191505060405180910390fd5b8091505092915050565b600080600754905080600d60008573ffffffffffffffffffffffffffffffffffffffff1673ffffffffffffffffffffffffffffffffffffffff168152602001908152602001600020819055506001915050919050565b600073ffffffffffffffffffffffffffffffffffffffff168373ffffffffffffffffffffffffffffffffffffffff1614151515611858576040517f08c379a00000000000000000000000000000000000000000000000000000000081526004018080602001828103825260258152602001807f45524332303a207472616e736665722066726f6d20746865207a65726f20616481526020017f647265737300000000000000000000000000000000000000000000000000000081525060400191505060405180910390fd5b600073ffffffffffffffffffffffffffffffffffffffff168273ffffffffffffffffffffffffffffffffffffffff1614151515611923576040517f08c379a00000000000000000000000000000000000000000000000000000000081526004018080602001828103825260238152602001807f45524332303a207472616e7366657220746f20746865207a65726f206164647281526020017f657373000000000000000000000000000000000000000000000000000000000081525060400191505060405180910390fd5b6119d281606060405190810160405280602681526020017f45524332303a207472616e7366657220616d6f756e742065786365656473206281526020017f616c616e636500000000000000000000000000000000000000000000000000008152506000808773ffffffffffffffffffffffffffffffffffffffff1673ffffffffffffffffffffffffffffffffffffffff16815260200190815260200160002054611b119092919063ffffffff16565b6000808573ffffffffffffffffffffffffffffffffffffffff1673ffffffffffffffffffffffffffffffffffffffff16815260200190815260200160002081905550611a65816000808573ffffffffffffffffffffffffffffffffffffffff1673ffffffffffffffffffffffffffffffffffffffff168152602001908152602001600020546116ad90919063ffffffff16565b6000808473ffffffffffffffffffffffffffffffffffffffff1673ffffffffffffffffffffffffffffffffffffffff168152602001908152602001600020819055508173ffffffffffffffffffffffffffffffffffffffff168373ffffffffffffffffffffffffffffffffffffffff167fddf252ad1be2c89b69c2b068fc378daa952ba7f163c4a11628f55a4df523b3ef836040518082815260200191505060405180910390a3505050565b60008383111582901515611bc0576040517f08c379a00000000000000000000000000000000000000000000000000000000081526004018080602001828103825283818151815260200191508051906020019080838360005b83811015611b85578082015181840152602081019050611b6a565b50505050905090810190601f168015611bb25780820380516001836020036101000a031916815260200191505b509250505060405180910390fd5b5060008385039050809150509392505050565b6000611c1583836040805190810160405280601e81526020017f536166654d6174683a207375627472616374696f6e206f766572666c6f770000815250611b11565b905092915050565b611c3181600361211e90919063ffffffff16565b8073ffffffffffffffffffffffffffffffffffffffff167fe94479a9f7e1952cc78f2d6baab678adc1b772d936c6583def489e524cb6669260405160405180910390a250565b600080600d60003373ffffffffffffffffffffffffffffffffffffffff1673ffffffffffffffffffffffffffffffffffffffff1681526020019081526020016000205490506000611cd382600754611bd390919063ffffffff16565b9050611cde33611737565b50809250505090565b600073ffffffffffffffffffffffffffffffffffffffff168273ffffffffffffffffffffffffffffffffffffffff1614151515611d8c576040517f08c379a000000000000000000000000000000000000000000000000000000000815260040180806020018281038252601f8152602001807f45524332303a206d696e7420746f20746865207a65726f20616464726573730081525060200191505060405180910390fd5b611da1816002546116ad90919063ffffffff16565b600281905550611df8816000808573ffffffffffffffffffffffffffffffffffffffff1673ffffffffffffffffffffffffffffffffffffffff168152602001908152602001600020546116ad90919063ffffffff16565b6000808473ffffffffffffffffffffffffffffffffffffffff1673ffffffffffffffffffffffffffffffffffffffff168152602001908152602001600020819055508173ffffffffffffffffffffffffffffffffffffffff16600073ffffffffffffffffffffffffffffffffffffffff167fddf252ad1be2c89b69c2b068fc378daa952ba7f163c4a11628f55a4df523b3ef836040518082815260200191505060405180910390a35050565b6000804390506000611ed5600a54611ec760085485611bd390919063ffffffff16565b61222090919063ffffffff16565b905081600881905550611f0a600c60009054906101000a900473ffffffffffffffffffffffffffffffffffffffff1682610ed4565b50611f14816122ed565b5060019250505090565b60008073ffffffffffffffffffffffffffffffffffffffff168273ffffffffffffffffffffffffffffffffffffffff1614151515611fea576040517f08c379a00000000000000000000000000000000000000000000000000000000081526004018080602001828103825260228152602001807f526f6c65733a206163636f756e7420697320746865207a65726f20616464726581526020017f737300000000000000000000000000000000000000000000000000000000000081525060400191505060405180910390fd5b8260000160008373ffffffffffffffffffffffffffffffffffffffff1673ffffffffffffffffffffffffffffffffffffffff16815260200190815260200160002060009054906101000a900460ff16905092915050565b61204b8282611f1e565b1515156120c0576040517f08c379a000000000000000000000000000000000000000000000000000000000815260040180806020018281038252601f8152602001807f526f6c65733a206163636f756e7420616c72656164792068617320726f6c650081525060200191505060405180910390fd5b60018260000160008373ffffffffffffffffffffffffffffffffffffffff1673ffffffffffffffffffffffffffffffffffffffff16815260200190815260200160002060006101000a81548160ff0219169083151502179055505050565b6121288282611f1e565b15156121c2576040517f08c379a00000000000000000000000000000000000000000000000000000000081526004018080602001828103825260218152602001807f526f6c65733a206163636f756e7420646f6573206e6f74206861766520726f6c81526020017f650000000000000000000000000000000000000000000000000000000000000081525060400191505060405180910390fd5b60008260000160008373ffffffffffffffffffffffffffffffffffffffff1673ffffffffffffffffffffffffffffffffffffffff16815260200190815260200160002060006101000a81548160ff0219169083151502179055505050565b60008083141561223357600090506122e7565b6000828402905082848281151561224657fe5b041415156122e2576040517f08c379a00000000000000000000000000000000000000000000000000000000081526004018080602001828103825260218152602001807f536166654d6174683a206d756c7469706c69636174696f6e206f766572666c6f81526020017f770000000000000000000000000000000000000000000000000000000000000081525060400191505060405180910390fd5b809150505b92915050565b6000806123056009548461231b90919063ffffffff16565b905061231081612365565b506001915050919050565b600061235d83836040805190810160405280601a81526020017f536166654d6174683a206469766973696f6e206279207a65726f00000000000081525061238b565b905092915050565b600061237c826007546116ad90919063ffffffff16565b60078190555060019050919050565b600080831182901515612439576040517f08c379a00000000000000000000000000000000000000000000000000000000081526004018080602001828103825283818151815260200191508051906020019080838360005b838110156123fe5780820151818401526020810190506123e3565b50505050905090810190601f16801561242b5780820380516001836020036101000a031916815260200191505b509250505060405180910390fd5b506000838581151561244757fe5b04905080915050939250505056fea165627a7a72305820e4e9c7048f725af3d612edcb22e0db0c9e00aad80d482342e5c7ae3cb6549bcb0029",
  "source": "pragma solidity ^0.5.0;\n\nimport \"../client/node_modules/@openzeppelin/contracts/token/ERC20/ERC20Mintable.sol\";\nimport \"../client/node_modules/@openzeppelin/contracts/token/ERC20/ERC20Detailed.sol\";\n\ncontract Rewards is ERC20Mintable, ERC20Detailed {\n\nusing SafeMath for uint256;\n\nuint256 public roundMask;\nuint256 public lastMintedBlockNumber;\nuint256 public totalParticipants = 0;\nuint256 public tokensPerBlock;\nuint256 public blockFreezeInterval;\naddress public tokencontractAddress = address(this);\nmapping(address => uint256) public participantMask;\n\n/**\n * @dev constructor, initializes variables.\n * @param _tokensPerBlock The amount of token that will be released per block, entered in wei format (E.g. 1000000000000000000)\n * @param _blockFreezeInterval The amount of blocks that need to pass (E.g. 1, 10, 100) before more tokens are brought into the ecosystem.\n */\nconstructor(uint256 _tokensPerBlock, uint256 _blockFreezeInterval) public ERC20Detailed\n      (\"Pearl\", \"PRL\", 18){\nlastMintedBlockNumber = block.number;\ntokensPerBlock = _tokensPerBlock;\nblockFreezeInterval = _blockFreezeInterval;\n}\n\n/**\n * @dev Modifier to check if msg.sender is whitelisted as a minter.\n */\nmodifier isAuthorized() {\n      require(isMinter(msg.sender));\n      _;\n}\n\n/**\n* @dev Function to add participants in the network.\n* @param _minter The address that will be able to mint tokens.\n* @return A boolean that indicates if the operation was successful.\n*/\nfunction addMinters(address _minter) external returns (bool) {\n_addMinter(_minter);\ntotalParticipants = totalParticipants.add(1);\nupdateParticipantMask(_minter);\nreturn true;\n}\n\n\n/**\n * @dev Function to remove participants in the network.\n * @param _minter The address that will be unable to mint tokens.\n * @return A boolean that indicates if the operation was successful.\n */\nfunction removeMinters(address _minter) external returns (bool) {\ntotalParticipants = totalParticipants.sub(1);\n_removeMinter(_minter);\nreturn true;\n}\n\n\n/**\n * @dev Function to introduce new tokens in the network.\n * @return A boolean that indicates if the operation was successful.\n */\nfunction trigger() external isAuthorized returns (bool) {\nbool res = readyToMint();\nif(res == false) {\nreturn false;\n} else {\nmintTokens();\nreturn true;\n}\n}\n\n/**\n * @dev Function to withdraw rewarded tokens by a participant.\n * @return A boolean that indicates if the operation was successful.\n */\nfunction withdraw() external isAuthorized returns (bool) {\nuint256 amount = calculateRewards();\nrequire(amount >0);\nERC20(tokencontractAddress).transfer(tx.origin, amount);\n}\n\n/**\n* @dev Function to check if new tokens are ready to be minted.\n* @return A boolean that indicates if the operation was successful.\n*/\nfunction readyToMint() public view returns (bool) {\nuint256 currentBlockNumber = block.number;\nuint256 lastBlockNumber = lastMintedBlockNumber;\nif(currentBlockNumber > lastBlockNumber + blockFreezeInterval) {\n      return true;\n} else {\nreturn false;\n}\n}\n\n/**\n* @dev Function to calculate current rewards for a participant.\n* @return A uint that returns the calculated rewards amount.\n*/\nfunction calculateRewards() private returns (uint256) {\nuint256 playerMask = participantMask[msg.sender];\nuint256 rewards = roundMask.sub(playerMask);\nupdateParticipantMask(msg.sender);\nreturn rewards;\n}\n\n/**\n* @dev Function to mint new tokens into the economy.\n* @return A boolean that indicates if the operation was successful.\n*/\nfunction mintTokens() private returns (bool) {\nuint256 currentBlockNumber = block.number;\nuint256 tokenReleaseAmount = (currentBlockNumber.sub(lastMintedBlockNumber)).mul(tokensPerBlock);\nlastMintedBlockNumber = currentBlockNumber;\nmint(tokencontractAddress, tokenReleaseAmount);\ncalculateTPP(tokenReleaseAmount);\nreturn true;\n}\n\n /**\n* @dev Function to calculate TPP (token amount per participant).\n* @return A boolean that indicates if the operation was successful.\n*/\nfunction calculateTPP(uint256 tokens) private returns (bool) {\nuint256 tpp = tokens.div(totalParticipants);\nupdateRoundMask(tpp);\nreturn true;\n}\n\n /**\n* @dev Function to update round mask.\n* @return A boolean that indicates if the operation was successful.\n*/\nfunction updateRoundMask(uint256 tpp) private returns (bool) {\nroundMask = roundMask.add(tpp);\nreturn true;\n}\n\n /**\n* @dev Function to update participant mask (store the previous round mask)\n* @return A boolean that indicates if the operation was successful.\n*/\nfunction updateParticipantMask(address participant) private returns (bool) {\nuint256 previousRoundMask = roundMask;\nparticipantMask[participant] = previousRoundMask;\nreturn true;\n}\n\n}",
  "sourcePath": "/home/matt/myproject/Perligo/contracts/Rewards.sol",
  "compiler": {
    "name": "solc",
    "version": "0.5.0+commit.1d4f565a.Emscripten.clang"
  },
  "schemaVersion": "3.0.5",
  "updatedAt": "2019-12-05T02:13:57.704Z",
  "devdoc": {
    "methods": {
      "addMinters(address)": {
        "details": "Function to add participants in the network.",
        "params": {
          "_minter": "The address that will be able to mint tokens."
        },
        "return": "A boolean that indicates if the operation was successful."
      },
      "allowance(address,address)": {
        "details": "See {IERC20-allowance}."
      },
      "approve(address,uint256)": {
        "details": "See {IERC20-approve}.     * Requirements:     * - `spender` cannot be the zero address."
      },
      "balanceOf(address)": {
        "details": "See {IERC20-balanceOf}."
      },
      "constructor": {
        "details": "constructor, initializes variables.",
        "params": {
          "_blockFreezeInterval": "The amount of blocks that need to pass (E.g. 1, 10, 100) before more tokens are brought into the ecosystem.",
          "_tokensPerBlock": "The amount of token that will be released per block, entered in wei format (E.g. 1000000000000000000)"
        }
      },
      "decimals()": {
        "details": "Returns the number of decimals used to get its user representation. For example, if `decimals` equals `2`, a balance of `505` tokens should be displayed to a user as `5,05` (`505 / 10 ** 2`).     * Tokens usually opt for a value of 18, imitating the relationship between Ether and Wei.     * NOTE: This information is only used for _display_ purposes: it in no way affects any of the arithmetic of the contract, including {IERC20-balanceOf} and {IERC20-transfer}."
      },
      "decreaseAllowance(address,uint256)": {
        "details": "Atomically decreases the allowance granted to `spender` by the caller.     * This is an alternative to {approve} that can be used as a mitigation for problems described in {IERC20-approve}.     * Emits an {Approval} event indicating the updated allowance.     * Requirements:     * - `spender` cannot be the zero address. - `spender` must have allowance for the caller of at least `subtractedValue`."
      },
      "increaseAllowance(address,uint256)": {
        "details": "Atomically increases the allowance granted to `spender` by the caller.     * This is an alternative to {approve} that can be used as a mitigation for problems described in {IERC20-approve}.     * Emits an {Approval} event indicating the updated allowance.     * Requirements:     * - `spender` cannot be the zero address."
      },
      "mint(address,uint256)": {
        "details": "See {ERC20-_mint}.     * Requirements:     * - the caller must have the {MinterRole}."
      },
      "name()": {
        "details": "Returns the name of the token."
      },
      "readyToMint()": {
        "details": "Function to check if new tokens are ready to be minted.",
        "return": "A boolean that indicates if the operation was successful."
      },
      "removeMinters(address)": {
        "details": "Function to remove participants in the network.",
        "params": {
          "_minter": "The address that will be unable to mint tokens."
        },
        "return": "A boolean that indicates if the operation was successful."
      },
      "symbol()": {
        "details": "Returns the symbol of the token, usually a shorter version of the name."
      },
      "totalSupply()": {
        "details": "See {IERC20-totalSupply}."
      },
      "transfer(address,uint256)": {
        "details": "See {IERC20-transfer}.     * Requirements:     * - `recipient` cannot be the zero address. - the caller must have a balance of at least `amount`."
      },
      "transferFrom(address,address,uint256)": {
        "details": "See {IERC20-transferFrom}.     * Emits an {Approval} event indicating the updated allowance. This is not required by the EIP. See the note at the beginning of {ERC20};     * Requirements: - `sender` and `recipient` cannot be the zero address. - `sender` must have a balance of at least `amount`. - the caller must have allowance for `sender`'s tokens of at least `amount`."
      },
      "trigger()": {
        "details": "Function to introduce new tokens in the network.",
        "return": "A boolean that indicates if the operation was successful."
      },
      "withdraw()": {
        "details": "Function to withdraw rewarded tokens by a participant.",
        "return": "A boolean that indicates if the operation was successful."
      }
    }
  },
  "userdoc": {
    "methods": {}
  }
}